S00F00005072654C6162352E73726563AA
S11300000C9434000C9446000C9446000C94460066
S11300100C9446000C9446000C9446000C94460044
S11300200C9446000C9446000C9446000C94460034
S11300300C9446000C9446000C9446000C94460024
S11300400C9446000C9446000C9446000C94460014
S11300500C9446000C9446000C9446000C94460004
S11300600C9446000C94460011241FBECFEFD8E038
S1130070DEBFCDBF21E0A0E0B1E001C01D92A03001
S1130080B207E1F70E9478000C94D9000C940000A8
S1130090ECE7F0E0108280818064808380818F7738
S11300A08083808180628083EAE7F0E0108280812F
S11300B080688083808183608083EEE7F0E08081C4
S11300C0806280830895ECE7F0E09081907F9083D4
S11300D09081892B8083EAE7F0E0808180648083CB
S11300E080917A0086FDFCCF8091790090E008959C
S11300F060E074E080E00E94AA0060E074E080E0C8
S11301000E94C3000E94480086E00E94630087E0CA
S11301100E94630086E00E946300EFE3FCE93197EC
S1130120F1F700C000000E94C10087E00E94630054
S1130130EFE3FCE93197F1F700C000000E94D7001B
S1130140FFE728E381E0F15020408040E1F700C060
S11301500000E0CF9AB190649AB914BC882321F0CE
S113016084B5806C84BD03C084B5806884BD84B5C7
S1130170836084BD6115744019F485B5856085BDBF
S1130180089587BD08959AB190629AB915BC8823E1
S113019021F084B5806384BD03C084B5806284BDCE
S11301A084B5836084BD85B5856085BD089588BDAB
S10901B00895F894FFCF4E
S9030000FC
